{
  "_format": "hh-sol-artifact-1",
  "contractName": "Implementation",
  "sourceName": "contracts/minimal-proxy/Implementation.sol",
  "abi": [
    {
      "inputs": [],
      "name": "getValue",
      "outputs": [
        {
          "internalType": "uint256",
          "name": "",
          "type": "uint256"
        }
      ],
      "stateMutability": "view",
      "type": "function"
    },
    {
      "inputs": [
        {
          "internalType": "address",
          "name": "_owner",
          "type": "address"
        },
        {
          "internalType": "uint256",
          "name": "_value",
          "type": "uint256"
        }
      ],
      "name": "initialize",
      "outputs": [],
      "stateMutability": "nonpayable",
      "type": "function"
    },
    {
      "inputs": [],
      "name": "owner",
      "outputs": [
        {
          "internalType": "address",
          "name": "",
          "type": "address"
        }
      ],
      "stateMutability": "view",
      "type": "function"
    },
    {
      "inputs": [
        {
          "internalType": "uint256",
          "name": "_newValue",
          "type": "uint256"
        }
      ],
      "name": "setValue",
      "outputs": [],
      "stateMutability": "nonpayable",
      "type": "function"
    },
    {
      "inputs": [],
      "name": "value",
      "outputs": [
        {
          "internalType": "uint256",
          "name": "",
          "type": "uint256"
        }
      ],
      "stateMutability": "view",
      "type": "function"
    }
  ],
  "bytecode": "0x608060405234801561001057600080fd5b5061050d806100206000396000f3fe608060405234801561001057600080fd5b50600436106100575760003560e01c8063209652551461005c5780633fa4f2451461007a57806355241077146100985780638da5cb5b146100b4578063cd6dc687146100d2575b600080fd5b6100646100ee565b60405161007191906102ad565b60405180910390f35b6100826100f8565b60405161008f91906102ad565b60405180910390f35b6100b260048036038101906100ad91906102f9565b6100fe565b005b6100bc610196565b6040516100c99190610367565b60405180910390f35b6100ec60048036038101906100e791906103ae565b6101ba565b005b6000600154905090565b60015481565b60008054906101000a900473ffffffffffffffffffffffffffffffffffffffff1673ffffffffffffffffffffffffffffffffffffffff163373ffffffffffffffffffffffffffffffffffffffff161461018c576040517f08c379a00000000000000000000000000000000000000000000000000000000081526004016101839061044b565b60405180910390fd5b8060018190555050565b60008054906101000a900473ffffffffffffffffffffffffffffffffffffffff1681565b600073ffffffffffffffffffffffffffffffffffffffff1660008054906101000a900473ffffffffffffffffffffffffffffffffffffffff1673ffffffffffffffffffffffffffffffffffffffff1614610249576040517f08c379a0000000000000000000000000000000000000000000000000000000008152600401610240906104b7565b60405180910390fd5b816000806101000a81548173ffffffffffffffffffffffffffffffffffffffff021916908373ffffffffffffffffffffffffffffffffffffffff160217905550806001819055505050565b6000819050919050565b6102a781610294565b82525050565b60006020820190506102c2600083018461029e565b92915050565b600080fd5b6102d681610294565b81146102e157600080fd5b50565b6000813590506102f3816102cd565b92915050565b60006020828403121561030f5761030e6102c8565b5b600061031d848285016102e4565b91505092915050565b600073ffffffffffffffffffffffffffffffffffffffff82169050919050565b600061035182610326565b9050919050565b61036181610346565b82525050565b600060208201905061037c6000830184610358565b92915050565b61038b81610346565b811461039657600080fd5b50565b6000813590506103a881610382565b92915050565b600080604083850312156103c5576103c46102c8565b5b60006103d385828601610399565b92505060206103e4858286016102e4565b9150509250929050565b600082825260208201905092915050565b7f4e6f74206f776e65720000000000000000000000000000000000000000000000600082015250565b60006104356009836103ee565b9150610440826103ff565b602082019050919050565b6000602082019050818103600083015261046481610428565b9050919050565b7f416c726561647920696e697469616c697a656400000000000000000000000000600082015250565b60006104a16013836103ee565b91506104ac8261046b565b602082019050919050565b600060208201905081810360008301526104d081610494565b905091905056fea26469706673582212202c9eafd3fe0527726cb8e28c54cbbe6a1aaef4824d712e54cd392f16c8b2940864736f6c63430008140033",
  "linkReferences": {},
  "deployedLinkReferences": {}
}