{
  "_format": "hh-sol-artifact-1",
  "contractName": "LogicV2",
  "sourceName": "contracts/transparent-proxy/LogicV2.sol",
  "abi": [
    {
      "inputs": [],
      "name": "getVars",
      "outputs": [
        {
          "internalType": "uint256",
          "name": "",
          "type": "uint256"
        },
        {
          "internalType": "address",
          "name": "",
          "type": "address"
        },
        {
          "internalType": "string",
          "name": "",
          "type": "string"
        }
      ],
      "stateMutability": "view",
      "type": "function"
    },
    {
      "inputs": [],
      "name": "num",
      "outputs": [
        {
          "internalType": "uint256",
          "name": "",
          "type": "uint256"
        }
      ],
      "stateMutability": "view",
      "type": "function"
    },
    {
      "inputs": [],
      "name": "sender",
      "outputs": [
        {
          "internalType": "address",
          "name": "",
          "type": "address"
        }
      ],
      "stateMutability": "view",
      "type": "function"
    },
    {
      "inputs": [
        {
          "internalType": "uint256",
          "name": "_num",
          "type": "uint256"
        }
      ],
      "name": "setVars",
      "outputs": [],
      "stateMutability": "nonpayable",
      "type": "function"
    },
    {
      "inputs": [],
      "name": "version",
      "outputs": [
        {
          "internalType": "string",
          "name": "",
          "type": "string"
        }
      ],
      "stateMutability": "view",
      "type": "function"
    }
  ],
  "bytecode": "0x608060405234801561001057600080fd5b50610821806100206000396000f3fe608060405234801561001057600080fd5b50600436106100575760003560e01c80634e70b1dc1461005c57806354fd4d501461007a5780636466414b1461009857806367e404ce146100b4578063813d8a37146100d2575b600080fd5b6100646100f2565b6040516100719190610319565b60405180910390f35b6100826100f8565b60405161008f91906103c4565b60405180910390f35b6100b260048036038101906100ad9190610417565b610186565b005b6100bc610216565b6040516100c99190610485565b60405180910390f35b6100da61023c565b6040516100e9939291906104a0565b60405180910390f35b60005481565b600280546101059061050d565b80601f01602080910402602001604051908101604052809291908181526020018280546101319061050d565b801561017e5780601f106101535761010080835404028352916020019161017e565b820191906000526020600020905b81548152906001019060200180831161016157829003601f168201915b505050505081565b8060008190555033600160006101000a81548173ffffffffffffffffffffffffffffffffffffffff021916908373ffffffffffffffffffffffffffffffffffffffff1602179055506040518060400160405280600281526020017f7632000000000000000000000000000000000000000000000000000000000000815250600290816102129190610719565b5050565b600160009054906101000a900473ffffffffffffffffffffffffffffffffffffffff1681565b6000806060600054600160009054906101000a900473ffffffffffffffffffffffffffffffffffffffff1660028080546102759061050d565b80601f01602080910402602001604051908101604052809291908181526020018280546102a19061050d565b80156102ee5780601f106102c3576101008083540402835291602001916102ee565b820191906000526020600020905b8154815290600101906020018083116102d157829003601f168201915b50505050509050925092509250909192565b6000819050919050565b61031381610300565b82525050565b600060208201905061032e600083018461030a565b92915050565b600081519050919050565b600082825260208201905092915050565b60005b8381101561036e578082015181840152602081019050610353565b60008484015250505050565b6000601f19601f8301169050919050565b600061039682610334565b6103a0818561033f565b93506103b0818560208601610350565b6103b98161037a565b840191505092915050565b600060208201905081810360008301526103de818461038b565b905092915050565b600080fd5b6103f481610300565b81146103ff57600080fd5b50565b600081359050610411816103eb565b92915050565b60006020828403121561042d5761042c6103e6565b5b600061043b84828501610402565b91505092915050565b600073ffffffffffffffffffffffffffffffffffffffff82169050919050565b600061046f82610444565b9050919050565b61047f81610464565b82525050565b600060208201905061049a6000830184610476565b92915050565b60006060820190506104b5600083018661030a565b6104c26020830185610476565b81810360408301526104d4818461038b565b9050949350505050565b7f4e487b7100000000000000000000000000000000000000000000000000000000600052602260045260246000fd5b6000600282049050600182168061052557607f821691505b602082108103610538576105376104de565b5b50919050565b7f4e487b7100000000000000000000000000000000000000000000000000000000600052604160045260246000fd5b60008190508160005260206000209050919050565b60006020601f8301049050919050565b600082821b905092915050565b6000600883026105cf7fffffffffffffffffffffffffffffffffffffffffffffffffffffffffffffffff82610592565b6105d98683610592565b95508019841693508086168417925050509392505050565b6000819050919050565b600061061661061161060c84610300565b6105f1565b610300565b9050919050565b6000819050919050565b610630836105fb565b61064461063c8261061d565b84845461059f565b825550505050565b600090565b61065961064c565b610664818484610627565b505050565b5b818110156106885761067d600082610651565b60018101905061066a565b5050565b601f8211156106cd5761069e8161056d565b6106a784610582565b810160208510156106b6578190505b6106ca6106c285610582565b830182610669565b50505b505050565b600082821c905092915050565b60006106f0600019846008026106d2565b1980831691505092915050565b600061070983836106df565b9150826002028217905092915050565b61072282610334565b67ffffffffffffffff81111561073b5761073a61053e565b5b610745825461050d565b61075082828561068c565b600060209050601f8311600181146107835760008415610771578287015190505b61077b85826106fd565b8655506107e3565b601f1984166107918661056d565b60005b828110156107b957848901518255600182019150602085019450602081019050610794565b868310156107d657848901516107d2601f8916826106df565b8355505b6001600288020188555050505b50505050505056fea26469706673582212202364f0bb773559d46cd791866c6a8de4835cc663fa236c56937fe10a19bcef2364736f6c63430008140033",
  "linkReferences": {},
  "deployedLinkReferences": {}
}