{
  "_format": "hh-sol-artifact-1",
  "contractName": "Proxy",
  "sourceName": "contracts/transparent-proxy/Proxy.sol",
  "abi": [
    {
      "inputs": [
        {
          "internalType": "address",
          "name": "_implementation",
          "type": "address"
        }
      ],
      "stateMutability": "nonpayable",
      "type": "constructor"
    },
    {
      "stateMutability": "payable",
      "type": "fallback"
    },
    {
      "inputs": [],
      "name": "implementation",
      "outputs": [
        {
          "internalType": "address",
          "name": "",
          "type": "address"
        }
      ],
      "stateMutability": "view",
      "type": "function"
    },
    {
      "inputs": [],
      "name": "num",
      "outputs": [
        {
          "internalType": "uint256",
          "name": "",
          "type": "uint256"
        }
      ],
      "stateMutability": "view",
      "type": "function"
    },
    {
      "inputs": [],
      "name": "owner",
      "outputs": [
        {
          "internalType": "address",
          "name": "",
          "type": "address"
        }
      ],
      "stateMutability": "view",
      "type": "function"
    },
    {
      "inputs": [],
      "name": "sender",
      "outputs": [
        {
          "internalType": "address",
          "name": "",
          "type": "address"
        }
      ],
      "stateMutability": "view",
      "type": "function"
    },
    {
      "inputs": [
        {
          "internalType": "address",
          "name": "_newImplementation",
          "type": "address"
        }
      ],
      "name": "upgrade",
      "outputs": [],
      "stateMutability": "nonpayable",
      "type": "function"
    },
    {
      "inputs": [],
      "name": "version",
      "outputs": [
        {
          "internalType": "string",
          "name": "",
          "type": "string"
        }
      ],
      "stateMutability": "view",
      "type": "function"
    }
  ],
  "bytecode": "0x608060405234801561001057600080fd5b506040516108573803806108578339818101604052810190610032919061011d565b80600360006101000a81548173ffffffffffffffffffffffffffffffffffffffff021916908373ffffffffffffffffffffffffffffffffffffffff16021790555033600460006101000a81548173ffffffffffffffffffffffffffffffffffffffff021916908373ffffffffffffffffffffffffffffffffffffffff1602179055505061014a565b600080fd5b600073ffffffffffffffffffffffffffffffffffffffff82169050919050565b60006100ea826100bf565b9050919050565b6100fa816100df565b811461010557600080fd5b50565b600081519050610117816100f1565b92915050565b600060208284031215610133576101326100ba565b5b600061014184828501610108565b91505092915050565b6106fe806101596000396000f3fe6080604052600436106100595760003560e01c80630900f010146101165780634e70b1dc1461013f57806354fd4d501461016a5780635c60da1b1461019557806367e404ce146101c05780638da5cb5b146101eb5761005a565b5b6000600360009054906101000a900473ffffffffffffffffffffffffffffffffffffffff169050600073ffffffffffffffffffffffffffffffffffffffff168173ffffffffffffffffffffffffffffffffffffffff16036100f0576040517f08c379a00000000000000000000000000000000000000000000000000000000081526004016100e79061044d565b60405180910390fd5b3660008037600080366000845af43d6000803e8060008114610111573d6000f35b3d6000fd5b34801561012257600080fd5b5061013d600480360381019061013891906104d0565b610216565b005b34801561014b57600080fd5b506101546102ea565b6040516101619190610516565b60405180910390f35b34801561017657600080fd5b5061017f6102f0565b60405161018c91906105b0565b60405180910390f35b3480156101a157600080fd5b506101aa61037e565b6040516101b791906105e1565b60405180910390f35b3480156101cc57600080fd5b506101d56103a4565b6040516101e291906105e1565b60405180910390f35b3480156101f757600080fd5b506102006103ca565b60405161020d91906105e1565b60405180910390f35b600460009054906101000a900473ffffffffffffffffffffffffffffffffffffffff1673ffffffffffffffffffffffffffffffffffffffff163373ffffffffffffffffffffffffffffffffffffffff16146102a6576040517f08c379a000000000000000000000000000000000000000000000000000000000815260040161029d90610648565b60405180910390fd5b80600360006101000a81548173ffffffffffffffffffffffffffffffffffffffff021916908373ffffffffffffffffffffffffffffffffffffffff16021790555050565b60005481565b600280546102fd90610697565b80601f016020809104026020016040519081016040528092919081815260200182805461032990610697565b80156103765780601f1061034b57610100808354040283529160200191610376565b820191906000526020600020905b81548152906001019060200180831161035957829003601f168201915b505050505081565b600360009054906101000a900473ffffffffffffffffffffffffffffffffffffffff1681565b600160009054906101000a900473ffffffffffffffffffffffffffffffffffffffff1681565b600460009054906101000a900473ffffffffffffffffffffffffffffffffffffffff1681565b600082825260208201905092915050565b7f4e6f20696d706c656d656e746174696f6e207365740000000000000000000000600082015250565b60006104376015836103f0565b915061044282610401565b602082019050919050565b600060208201905081810360008301526104668161042a565b9050919050565b600080fd5b600073ffffffffffffffffffffffffffffffffffffffff82169050919050565b600061049d82610472565b9050919050565b6104ad81610492565b81146104b857600080fd5b50565b6000813590506104ca816104a4565b92915050565b6000602082840312156104e6576104e561046d565b5b60006104f4848285016104bb565b91505092915050565b6000819050919050565b610510816104fd565b82525050565b600060208201905061052b6000830184610507565b92915050565b600081519050919050565b60005b8381101561055a57808201518184015260208101905061053f565b60008484015250505050565b6000601f19601f8301169050919050565b600061058282610531565b61058c81856103f0565b935061059c81856020860161053c565b6105a581610566565b840191505092915050565b600060208201905081810360008301526105ca8184610577565b905092915050565b6105db81610492565b82525050565b60006020820190506105f660008301846105d2565b92915050565b7f4e6f74206f776e65720000000000000000000000000000000000000000000000600082015250565b60006106326009836103f0565b915061063d826105fc565b602082019050919050565b6000602082019050818103600083015261066181610625565b9050919050565b7f4e487b7100000000000000000000000000000000000000000000000000000000600052602260045260246000fd5b600060028204905060018216806106af57607f821691505b6020821081036106c2576106c1610668565b5b5091905056fea2646970667358221220f21d88a0e59932f5ec0cfc4f2516b5fcd22e4e0d6e28268b82e6314631254f7364736f6c63430008140033",
  "linkReferences": {},
  "deployedLinkReferences": {}
}