{
  "_format": "hh-sol-artifact-1",
  "contractName": "MinimalProxyFactory",
  "sourceName": "contracts/minimal-proxy/MinimalProxyFactory.sol",
  "abi": [
    {
      "inputs": [],
      "name": "FailedDeployment",
      "type": "error"
    },
    {
      "inputs": [
        {
          "internalType": "uint256",
          "name": "balance",
          "type": "uint256"
        },
        {
          "internalType": "uint256",
          "name": "needed",
          "type": "uint256"
        }
      ],
      "name": "InsufficientBalance",
      "type": "error"
    },
    {
      "anonymous": false,
      "inputs": [
        {
          "indexed": false,
          "internalType": "address",
          "name": "proxy",
          "type": "address"
        }
      ],
      "name": "ProxyDeployed",
      "type": "event"
    },
    {
      "inputs": [
        {
          "internalType": "address",
          "name": "implementation",
          "type": "address"
        }
      ],
      "name": "createClone",
      "outputs": [
        {
          "internalType": "address",
          "name": "clone",
          "type": "address"
        }
      ],
      "stateMutability": "nonpayable",
      "type": "function"
    }
  ],
  "bytecode": "0x608060405234801561001057600080fd5b506102fd806100206000396000f3fe608060405234801561001057600080fd5b506004361061002b5760003560e01c806357894c1b14610030575b600080fd5b61004a6004803603810190610045919061022e565b610060565b604051610057919061026a565b60405180910390f35b60006100818273ffffffffffffffffffffffffffffffffffffffff166100bf565b90507fe542a942474a745be15595bbad9536fc3040d687435b060b2b9f07c1b7449818816040516100b2919061026a565b60405180910390a1919050565b60006100cc8260006100d3565b9050919050565b60008147101561011c5747826040517fcf47918100000000000000000000000000000000000000000000000000000000815260040161011392919061029e565b60405180910390fd5b763d602d80600a3d3981f3363d3d373d3d3d363d730000008360601b60e81c176000526e5af43d82803e903d91602b57fd5bf38360781b176020526037600983f09050600073ffffffffffffffffffffffffffffffffffffffff168173ffffffffffffffffffffffffffffffffffffffff16036101c5576040517fb06ebf3d00000000000000000000000000000000000000000000000000000000815260040160405180910390fd5b92915050565b600080fd5b600073ffffffffffffffffffffffffffffffffffffffff82169050919050565b60006101fb826101d0565b9050919050565b61020b816101f0565b811461021657600080fd5b50565b60008135905061022881610202565b92915050565b600060208284031215610244576102436101cb565b5b600061025284828501610219565b91505092915050565b610264816101f0565b82525050565b600060208201905061027f600083018461025b565b92915050565b6000819050919050565b61029881610285565b82525050565b60006040820190506102b3600083018561028f565b6102c0602083018461028f565b939250505056fea2646970667358221220ede90a4e5f90a23253fd94690acb0fd325bf2c27742d6c8c8d33c42d4e72234a64736f6c63430008140033",
  "linkReferences": {},
  "deployedLinkReferences": {}
}