{
  "_format": "hh-sol-artifact-1",
  "contractName": "LogicV1",
  "sourceName": "contracts/transparent-proxy/LogicV1.sol",
  "abi": [
    {
      "inputs": [],
      "name": "getVars",
      "outputs": [
        {
          "internalType": "uint256",
          "name": "",
          "type": "uint256"
        },
        {
          "internalType": "address",
          "name": "",
          "type": "address"
        }
      ],
      "stateMutability": "view",
      "type": "function"
    },
    {
      "inputs": [],
      "name": "num",
      "outputs": [
        {
          "internalType": "uint256",
          "name": "",
          "type": "uint256"
        }
      ],
      "stateMutability": "view",
      "type": "function"
    },
    {
      "inputs": [],
      "name": "sender",
      "outputs": [
        {
          "internalType": "address",
          "name": "",
          "type": "address"
        }
      ],
      "stateMutability": "view",
      "type": "function"
    },
    {
      "inputs": [
        {
          "internalType": "uint256",
          "name": "_num",
          "type": "uint256"
        }
      ],
      "name": "setVars",
      "outputs": [],
      "stateMutability": "nonpayable",
      "type": "function"
    }
  ],
  "bytecode": "0x608060405234801561001057600080fd5b506102bd806100206000396000f3fe608060405234801561001057600080fd5b506004361061004c5760003560e01c80634e70b1dc146100515780636466414b1461006f57806367e404ce1461008b578063813d8a37146100a9575b600080fd5b6100596100c8565b6040516100669190610189565b60405180910390f35b610089600480360381019061008491906101d5565b6100ce565b005b610093610119565b6040516100a09190610243565b60405180910390f35b6100b161013f565b6040516100bf92919061025e565b60405180910390f35b60005481565b8060008190555033600160006101000a81548173ffffffffffffffffffffffffffffffffffffffff021916908373ffffffffffffffffffffffffffffffffffffffff16021790555050565b600160009054906101000a900473ffffffffffffffffffffffffffffffffffffffff1681565b600080600054600160009054906101000a900473ffffffffffffffffffffffffffffffffffffffff16915091509091565b6000819050919050565b61018381610170565b82525050565b600060208201905061019e600083018461017a565b92915050565b600080fd5b6101b281610170565b81146101bd57600080fd5b50565b6000813590506101cf816101a9565b92915050565b6000602082840312156101eb576101ea6101a4565b5b60006101f9848285016101c0565b91505092915050565b600073ffffffffffffffffffffffffffffffffffffffff82169050919050565b600061022d82610202565b9050919050565b61023d81610222565b82525050565b60006020820190506102586000830184610234565b92915050565b6000604082019050610273600083018561017a565b6102806020830184610234565b939250505056fea2646970667358221220885797243a9ce7cda1461b817876db760f55cd9895107842fdf2e083c70ee69e64736f6c63430008140033",
  "linkReferences": {},
  "deployedLinkReferences": {}
}