{"contracts/minimal-proxy/MinimalProxyFactory.sol":{"MinimalProxyFactory":{"abi":[{"anonymous":false,"inputs":[{"indexed":false,"internalType":"address","name":"proxy","type":"address"}],"name":"ProxyDeployed","type":"event"},{"inputs":[{"internalType":"address","name":"implementation","type":"address"}],"name":"createClone","outputs":[{"internalType":"address","name":"clone","type":"address"}],"stateMutability":"nonpayable","type":"function"}],"evm":{"bytecode":{"linkReferences":{},"object":"608060405234801561001057600080fd5b506101cd806100206000396000f3fe608060405234801561001057600080fd5b506004361061002b5760003560e01c806357894c1b14610030575b600080fd5b61004a60048036038101906100459190610140565b610060565b604051610057919061017c565b60405180910390f35b6000808260601b9050604051693d602d80600a3d3981f381528160601b60148201526e5af43d82803e903d91602b57fd5bf360288201526037816000f09250507fe542a942474a745be15595bbad9536fc3040d687435b060b2b9f07c1b7449818826040516100cf919061017c565b60405180910390a150919050565b600080fd5b600073ffffffffffffffffffffffffffffffffffffffff82169050919050565b600061010d826100e2565b9050919050565b61011d81610102565b811461012857600080fd5b50565b60008135905061013a81610114565b92915050565b600060208284031215610156576101556100dd565b5b60006101648482850161012b565b91505092915050565b61017681610102565b82525050565b6000602082019050610191600083018461016d565b9291505056fea26469706673582212201f1565a469f8827aea710ea884727d789023d9e95b79390632dca355e305189e64736f6c63430008140033","opcodes":"PUSH1 0x80 PUSH1 0x40 MSTORE CALLVALUE DUP1 ISZERO PUSH2 0x10 JUMPI PUSH1 0x0 DUP1 REVERT JUMPDEST POP PUSH2 0x1CD DUP1 PUSH2 0x20 PUSH1 0x0 CODECOPY PUSH1 0x0 RETURN INVALID PUSH1 0x80 PUSH1 0x40 MSTORE CALLVALUE DUP1 ISZERO PUSH2 0x10 JUMPI PUSH1 0x0 DUP1 REVERT JUMPDEST POP PUSH1 0x4 CALLDATASIZE LT PUSH2 0x2B JUMPI PUSH1 0x0 CALLDATALOAD PUSH1 0xE0 SHR DUP1 PUSH4 0x57894C1B EQ PUSH2 0x30 JUMPI JUMPDEST PUSH1 0x0 DUP1 REVERT JUMPDEST PUSH2 0x4A PUSH1 0x4 DUP1 CALLDATASIZE SUB DUP2 ADD SWAP1 PUSH2 0x45 SWAP2 SWAP1 PUSH2 0x140 JUMP JUMPDEST PUSH2 0x60 JUMP JUMPDEST PUSH1 0x40 MLOAD PUSH2 0x57 SWAP2 SWAP1 PUSH2 0x17C JUMP JUMPDEST PUSH1 0x40 MLOAD DUP1 SWAP2 SUB SWAP1 RETURN JUMPDEST PUSH1 0x0 DUP1 DUP3 PUSH1 0x60 SHL SWAP1 POP PUSH1 0x40 MLOAD PUSH10 0x3D602D80600A3D3981F3 DUP2 MSTORE DUP2 PUSH1 0x60 SHL PUSH1 0x14 DUP3 ADD MSTORE PUSH15 0x5AF43D82803E903D91602B57FD5BF3 PUSH1 0x28 DUP3 ADD MSTORE PUSH1 0x37 DUP2 PUSH1 0x0 CREATE SWAP3 POP POP PUSH32 0xE542A942474A745BE15595BBAD9536FC3040D687435B060B2B9F07C1B7449818 DUP3 PUSH1 0x40 MLOAD PUSH2 0xCF SWAP2 SWAP1 PUSH2 0x17C JUMP JUMPDEST PUSH1 0x40 MLOAD DUP1 SWAP2 SUB SWAP1 LOG1 POP SWAP2 SWAP1 POP JUMP JUMPDEST PUSH1 0x0 DUP1 REVERT JUMPDEST PUSH1 0x0 PUSH20 0xFFFFFFFFFFFFFFFFFFFFFFFFFFFFFFFFFFFFFFFF DUP3 AND SWAP1 POP SWAP2 SWAP1 POP JUMP JUMPDEST PUSH1 0x0 PUSH2 0x10D DUP3 PUSH2 0xE2 JUMP JUMPDEST SWAP1 POP SWAP2 SWAP1 POP JUMP JUMPDEST PUSH2 0x11D DUP2 PUSH2 0x102 JUMP JUMPDEST DUP2 EQ PUSH2 0x128 JUMPI PUSH1 0x0 DUP1 REVERT JUMPDEST POP JUMP JUMPDEST PUSH1 0x0 DUP2 CALLDATALOAD SWAP1 POP PUSH2 0x13A DUP2 PUSH2 0x114 JUMP JUMPDEST SWAP3 SWAP2 POP POP JUMP JUMPDEST PUSH1 0x0 PUSH1 0x20 DUP3 DUP5 SUB SLT ISZERO PUSH2 0x156 JUMPI PUSH2 0x155 PUSH2 0xDD JUMP JUMPDEST JUMPDEST PUSH1 0x0 PUSH2 0x164 DUP5 DUP3 DUP6 ADD PUSH2 0x12B JUMP JUMPDEST SWAP2 POP POP SWAP3 SWAP2 POP POP JUMP JUMPDEST PUSH2 0x176 DUP2 PUSH2 0x102 JUMP JUMPDEST DUP3 MSTORE POP POP JUMP JUMPDEST PUSH1 0x0 PUSH1 0x20 DUP3 ADD SWAP1 POP PUSH2 0x191 PUSH1 0x0 DUP4 ADD DUP5 PUSH2 0x16D JUMP JUMPDEST SWAP3 SWAP2 POP POP JUMP INVALID LOG2 PUSH5 0x6970667358 0x22 SLT KECCAK256 0x1F ISZERO PUSH6 0xA469F8827AEA PUSH18 0xEA884727D789023D9E95B79390632DCA355 0xE3 SDIV XOR SWAP15 PUSH5 0x736F6C6343 STOP ADDMOD EQ STOP CALLER "},"methodIdentifiers":{"createClone(address)":"57894c1b"}}}}}